:03000000020100FA
:1001000075813FC2AF758925758DFD759850D28E6A
:10011000758C00758A00D28C90017A120158E58C9A
:10012000120137E58A120137740D120163740A1245
:10013000016312016D80E1C0E0C412014912016344
:10014000D0E012014912016322540FC083C0829093
:10015000018893D082D08322E4936006120163A3C6
:1001600080F622C299F5993099FDC299227D057ECB
:10017000C87FFADFFEDEFADDF622446174612043B7
:100180006F756E74203D2000303132333435363790
:08019000383941424344454661
:00000001FF
