:020000002100DD
:1001000075813FC2AF758920759850758DFDD28E6F
:100110007800D2B2D2B73098FDE599C298B42B08D6
:1001200008B80A427800803EB42D0818B8FF377826
:10013000098033B43002802EC3F99431401FE99412
:100140003960025018C2B2E9C39430FA12016EC28B
:10015000B7120175D2B7120175DAF480B9D2B27450
:100160000A12016E80B0D2B2E812016E80A890012E
:100170008293F590227D057E647FFADFFEDEFADD54
:0D018000F6223F065B4F666D7D077F6F40E6
:00000001FF
