:020000002100DD
:1001000075813FC2AF758920759850758DFD758BCF
:10011000FDD28E7800D2B2D2B7E81201853098FDB8
:10012000E599C298B40D0280F4B40A0280EFB420BD
:100130000280EAB42B0808B80A437800803FB42D47
:100140000818B8FF3878098034B43002802FC3F91A
:1001500094314020E9943960025019D2B2E9C39435
:1001600030F8FA120185D2B712018CC2B712018C95
:10017000DAF480A9C2B2740A12018580A0C2B2E882
:10018000120185809890019993F590227D057E64F7
:100190007FE4DFFEDEFADDF6223F065B4F666D7D13
:0401A000077F6F4026
:00000001FF
