:020000002100DD
:1001000075813FC2AF758920759850758DFDD28E6F
:1001100075A0FF75900030981BE599C298C3F994BB
:10012000304011E994396002500AE9C394309001DB
:100130009593F59030A00B30A11830A22530A33252
:1001400080D412018C20A0CE743012018230A0FD28
:1001500080C412018C20A1BE743112018230A1FD35
:1001600080B412018C20A2AE743212018230A2FD42
:1001700080A412018C20A39E743312018230A3FD4F
:100180008094C299F5993099FDC299227E287FFA10
:0F019000DFFEDEFA223F065B4F666D7D077F6F55
:00000001FF
